:100000000070002011040000A3050000B30A0000E6
:10001000B50A0000B70A0000B90A0000000000009D
:10002000000000000000000000000000BB0A00000B
:10003000BD0A000000000000BF0A0000C10A000065
:10004000C30A0000C30A0000C30A0000C30A00007C
:10005000C30A0000C30A0000C30A0000C30A00006C
:10006000C30A0000C30A0000C30A0000C30A00005C
:10007000C30A0000C30A0000C30A0000C30A00004C
:10040000FFFFFFFFFFFFFFFFFFFFFFFFFE7FFFFF7D
:1004100072B64FF000004FF000014FF000024FF0B5
:1004200000034FF000044FF000054FF000064FF0BE
:1004300000071B484FF4401101601A481A49016037
:100440001A4880F30888FFE7194842F220510160FA
:1004500018484FF6FF710160FFE71748002809D0E0
:100460001649174A521A013A04DD0020002309C137
:10047000083AFCDA134800684FF05A318842F9D044
:10048000FFE700F04DFA00F01FF862B600F00CFB39
:1004900000F00EFA00BFFEE7AFF30080AFF300807C
:1004A0000480044008ED00E00088FF1F0070002079
:1004B0000020054008200540010000000080FF1FCB
:1004C00000700020F492FF1F08B54FF0E023D3F82E
:1004D000883D4FF0E02243F47003C2F8883DBFF33B
:1004E0004F8FBFF36F8F4FF0E023D3F8143D4FF0E1
:1004F000E02243F00103C2F8143D4FF0E023D3F8AB
:10050000203D4FF0E02223F47F03C2F8203D4FF05E
:1005100080434FF077321A604FF0804300221A6216
:100520004FF0804300225A624FF080430022DA628B
:100530004FF0804300221A644FF0804300225A6437
:100540004FF0804300229A644FF080430022DA6427
:100550004FF0804300221A654FF0804300225A6515
:100560004FF0804300229A654FF080430022DA6505
:100570004FF0804300221A664FF0804300225A66F3
:100580004FF0804300229A664FF080430022DA66E3
:10059000BFF34F8FBFF36F8F002000F057FA00BFFB
:1005A00008BDFEE753B94AB9002908BF00281CBF9F
:1005B0004FF0FF314FF0FF3000F078B9ADF1080C8B
:1005C0006DE904CE00F006F8DDF804E0DDE9022371
:1005D00004B070472DE9F047089D0E4604468E464C
:1005E000002B4CD18A42944667D9B2FA82F252B1BA
:1005F00001FA02F3C2F1200120FA01F10CFA02FC27
:1006000041EA030E94404FEA1C48210CBEFBF8F669
:100610001FFA8CF708FB16E341EA034306FB07F1D8
:1006200099420AD91CEB030306F1FF3080F01E81CA
:10063000994240F21B81023E63445B1AA4B2B3FBB1
:10064000F8F008FB103344EA034400FB07F7A74225
:100650000AD91CEB040400F1FF3380F00981A742A2
:1006600040F2068164440238E41B40EA064000215F
:100670001DB1D4400023C5E90043BDE8F0878B429B
:1006800008D9002D00F0EF800021C5E900060846DA
:10069000BDE8F087B3FA83F1002949D1B34202D310
:1006A000824200F2FF80841A66EB030301209E461B
:1006B000002DE2D0C5E9004EDFE702B9FFDEB2FA55
:1006C00082F2002A40F08E80A1EB0C064FEA1C4714
:1006D0001FFA8CF30121B6FBF7FE07FB1E60260C08
:1006E00046EA004603FB0EF0B04208D91CEB0606B2
:1006F0000EF1FF3802D2B04200F2D080C646361A60
:10070000A4B2B6FBF7F007FB106644EA064400FB10
:1007100003F3A34208D91CEB040400F1FF3602D214
:10072000A34200F2B8803046E41A40EA0E409FE748
:10073000C1F1200722FA07F48B40234306FA01FC9B
:1007400026FA07F420FA07F646EA0C064FEA1349A0
:1007500000FA01F8B4FBF9FE300C1FFA83FC09FB28
:100760001E4440EA04440EFB0CF0A04202FA01F2DF
:100770000AD91C190EF1FF3A80F08B80A04240F29A
:100780008880AEF1020E1C44241AB6B2B4FBF9F014
:1007900009FB104446EA044400FB0CFCA44507D9BD
:1007A0001C1900F1FF3670D2A4456ED902381C44E2
:1007B00040EA0E40A0FB02E6A4EB0C04B442F4466F
:1007C000B14659D356D0002D6ED0B8EB0C0364EB74
:1007D0000904CB4004FA07F71F43CC40C5E9007475
:1007E00000214AE7C2F1200024FA00F10CFA02FCD1
:1007F00006FA02F326FA00F04FEA1C4741EA030624
:10080000B0FBF7F11FFA8CF307FB110E300C40EA36
:100810000E4001FB03FE864504FA02F408D91CEBE6
:10082000000001F1FF3832D2864530D902396044E8
:10083000A0EB0E00B6B2B0FBF7FE07FB1E0046EAC7
:1008400000460EFB03F0B04209D91CEB06060EF180
:10085000FF3818D2B04216D9AEF1020E6644361AED
:100860004EEA014137E72946284606E70646E4E610
:100870001846F9E6F045A6D2BEEB020C66EB030380
:10088000013899469FE7C646E9E7304690E741467A
:10089000CEE7D64678E76444023845E7AEF1020E6B
:1008A00066442CE7084603E72946E6E6704700BFA2
:1008B00008B500F001F8FEE708B5084803F0ACFE03
:1008C000002003F0FDFE002003F01EFF044804F0AA
:1008D000A5FA044807F04CFE00BF08BDBCBF0000ED
:1008E000DCC000004CC1000010B4EFF310831C46C4
:1008F000234618465DF8044B704710B4EFF310839D
:100900001C46234618465DF8044B704710B4EFF3BD
:1009100010831C46234618465DF8044B70470000C0
:100920008AB0002307930023069300230993002332
:100930000893444B0593444B0493059B1B68079312
:10094000059B04330593059B0393002309933DE026
:10095000099A13465B0013449B001A46039B1344F9
:100960005B680093099A13465B0013449B001A4688
:10097000039B13441B680193099A13465B001344BD
:100980009B001A46039B13449B681946099A134619
:100990005B0013449B001A46039B13445B68CB1A0D
:1009A0000693002308930AE0009A089B1A440199D1
:1009B000089B0B4412781A70089B01330893089A1D
:1009C000069B9A42F0D3099B01330993099A079B2E
:1009D0009A42BDD3049B1B680793049B0433049382
:1009E000049B02930023099324E0099BDB00029AF5
:1009F00013441B680193099BDB00029A13445B6854
:100A00001946099BDB00029A13441B68CB1A069314
:100A10000023089307E0019A089B134400221A70F0
:100A2000089B01330893089A069B9A42F3D3099BCB
:100A300001330993099A079B9A42D6D300BF00BF9E
:100A40000AB070475CC1000078C1000084B0034662
:100A50008DF8073000238DF80F309DF80730002BFC
:100A600018D1104B4FF0A0621A600E4B1B680D4A54
:100A700043F00043136000BF0A4B1B6803F00043C0
:100A8000B3F1004FF8D0074B1B68064A43F001034F
:100A9000136002E001238DF80F309DF80F301846E7
:100AA00004B07047002008E000BF704700231846DC
:100AB0007047FEE7FEE7FEE7FEE7FEE7FEE7FEE73C
:100AC000FEE7FEE700231846704782B0019001233D
:100AD000184602B0704782B0019000BF02B0704764
:100AE00082B00190019B184602B0704700B583B0F8
:100AF000019000F06DF800BF03B05DF804FB00B595
:100B000085B0019000230393019B002B03D0019B30
:100B1000012B04D007E0FFF7D5FF039003E000F0BE
:100B200073F8039000BF039B184605B05DF804FB03
:100B300000B585B00190009100230393009B002B2A
:100B400003D0009B012B05D009E00198FFF7BDFF02
:100B5000039004E0019800F065F8039000BF039B48
:100B6000184605B05DF804FB00B583B00190009114
:100B7000009B002B03D0009B012B04D007E00198C1
:100B8000FFF7A9FF03E0019800F05CF800BF00BF89
:100B900003B05DF804FB00B585B00190009100231F
:100BA0000393009B002B03D0009B012B05D009E091
:100BB0000198FFF795FF039004E0019800F050F8CA
:100BC000039000BF039B184605B05DF804FB0000CE
:100BD00000B583B000230193094A019B52F82330EA
:100BE0005A680849019B41F82320064A019B52F8A4
:100BF0002330184600F068F800BF03B05DF804FB2E
:100C0000E0BF0000408BFF1F00B583B000230193BD
:100C10000023009300F06CF80190019B184603B08C
:100C20005DF804FB00B585B0019000230393002319
:100C30000293019800F064F80390039B184605B0F6
:100C40005DF804FB84B00190002303930349039BE8
:100C5000019A41F8232000BF04B07047408BFF1F6A
:100C6000F0B587B001900021059100210491019910
:100C700000200E4607461248049950F82110002023
:100C80000C46054604FB07F006FB05F10144A6FBF4
:100C9000042319440B46CDE90223CDE90223DDE903
:100CA0000201084A4FF00003FFF77CFC02460B46A6
:100CB000CDE90223029B0593059B184607B0F0BDC2
:100CC000408BFF1F40420F0082B00190074B002273
:100CD0001A60064B6FF07F425A60044B00229A6004
:100CE000024B05221A6000BF02B0704710E000E01E
:100CF000024B9B6823F07F431846704710E000E0EA
:100D000084B00190104B9B6823F07F430293002333
:100D10000393019B1B68029A9A4209D9019B1A68A6
:100D2000029BD31A03F1FF1303F57F43039304E0FF
:100D3000019B1A68029BD31A0393019B029A1A60C3
:100D4000039B184604B0704710E000E082B00190A9
:100D5000009100BF02B0704700B585B00190244BF0
:100D600001221A70234B1B680221184603F032FC43
:100D700000238DF80F3015E09DF80F30019A4A33AB
:100D8000DB00134458689DF80F30019A4A33DB00AA
:100D900013449B68194601F0DCFA9DF80F300133CB
:100DA0008DF80F30019BDB7B9DF80F209A42E3D337
:100DB00000F024F801238DF80F300EE09DF80F208D
:100DC000019B7E3253F832300B499DF80F20CA54F4
:100DD0009DF80F3001338DF80F30019BDB7C9DF8BF
:100DE0000F209A42EAD300BF00BF05B05DF804FBB4
:100DF000108BFF1F448BFF1F508BFF1F08B5234B29
:100E00001B7883F00103DBB2002B3DD01F4B012286
:100E10001A701F4B5B680021002098471C4B9B6891
:100E2000572098471B4B1B68002098471A4B1B689C
:100E300000209847194B1B6800209847184B5B68A7
:100E400000209847164B9B6857209847154B1B6806
:100E500000209847134B5B68002157209847124B9E
:100E60001B6800209847114B5B68002098470F4B88
:100E70009B68572098470E4B5B68002098470D4BA6
:100E80001B6800210020984700BF08BD488BFF1F4A
:100E9000F0B9000004B9000040B9000048B90000F2
:100EA00070B900007CB90000B4B9000000BA0000BD
:100EB0002CBA000028BA000000B585B00190019B53
:100EC000DB7A03931FE0039B5A1E019B0D3253F8FC
:100ED00032205A491346DB0013440B4401331B787C
:100EE0001A46574B9B5C0293564A029B52F833308A
:100EF000039A013A0D32D20001990A4410469847EC
:100F0000039B013B0393039B002BDCD1019B9B7B49
:100F1000039326E0039B013B019A24331B011344F6
:100F200004331A6845491346DB0013440B4401336C
:100F30001B781A46444B9B5C02934449029A134621
:100F40005B0013449B000B441B68039A013A243254
:100F5000120101990A44043210469847039B013B51
:100F60000393039B002BD5D1019B9B7A03932AE02B
:100F7000039B5A1E019913469B001344DB000B444C
:100F800040331A682D491346DB0013440B440133E8
:100F90001B781A462E4B9B5C02932E49029A1346ED
:100FA0009B0013449B000B441968039B5A1E134675
:100FB0009B001344DB004033019A134418468847D2
:100FC000039B013B0393039B002BD1D1019B5B7AD5
:100FD00003932BE0039B5A1E019913469B00134475
:100FE0009B000B442C331A6814491346DB0013444E
:100FF0000B4401331B781A46174B9B5C029317492D
:10100000029A13469B0013449B000B441968039BF0
:101010005A1E13469B0013449B002833019A134425
:10102000043318468847039B013B0393039B002B23
:10103000D0D100BF00BF05B05DF804FBF4B30000E1
:10104000C4B300002CBA0000A4B3000070B90000C3
:10105000B4B3000000BA000074B3000048B9000047
:1010600000B585B0019001230393019800F018F8B2
:101070000A4B1B78002B0AD000F074FB0290029BF5
:10108000002B06D100F0F2FB0023039301E00023C4
:101090000393039B184605B05DF804FB4C8BFF1FC0
:1010A00010B584B001909F4A019B13600121019803
:1010B00003F090FA9B4B1B68002B30D00023039366
:1010C00027E00199039A13469B0013449B000B44AD
:1010D00003F574731A6894491346DB0013440B44F8
:1010E00001331B781A46914B9B5C0293904A029BFA
:1010F0001B0113441968039A13469B0013449B0079
:1011000003F57473019A134418468847039B01330F
:101110000393019B9B7C1A46039B9342D1D3019876
:10112000FFF7CAFE0023039329E00199039A1346AF
:101130005B0013449B000B4414331A687A4913462E
:10114000DB0013440B4401331B781A46794B9B5C3C
:1011500002937949029A13465B0013449B000B44A7
:101160001968039A13465B0013449B001033019ADD
:101170001344043318468847039B01330393019BB0
:101180001B7A1A46039B9342CFD3002303932AE092
:101190000199039A13469B0013449B000B442C3384
:1011A0001A6861491346DB0013440B4401331B7872
:1011B0001A46624B9B5C02936149029A13469B005C
:1011C00013449B000B4404331968039A13469B0095
:1011D00013449B002833019A13440433184688476C
:1011E000039B01330393019B5B7A1A46039B934253
:1011F000CED30198FFF7B0FD0023039328E00199B7
:10120000039A13469B0013449B000B4403F56F7332
:101210001A6845491346DB0013440B4401331B781D
:101220001A46484B9B5C0293474A029B52F8234064
:10123000039A13469B0013449B0003F56E73019AB7
:101240001344043303991846A047039B01330393C7
:10125000019B5B7C1A46039B9342D0D300230393EC
:1012600026E00199039A13465B0013449B000B444C
:1012700003F50E731A682C491346DB0013440B4424
:1012800001331B781A46314B9B5C0293304A029B18
:1012900052F83310039A13465B0013449B0003F586
:1012A0000E73019A134418468847039B0133039336
:1012B000019B5B7B1A46039B9342D2D3002303938B
:1012C00026E00199039A13465B0013449B000B44EC
:1012D00003F5A4731A6814491346DB0013440B4446
:1012E00001331B781A461B4B9B5C02931A4A029BE4
:1012F00052F82310039A13465B0013449B0003F536
:10130000A473019A134418468847039B013303933F
:10131000019B1B7B1A46039B9342D2D3002303936A
:1013200044E000BF448BFF1FF4B30000E4B30000AF
:10133000F0B9000084B30000B4B9000074B3000039
:1013400048B90000D4B3000028BA000064B300001C
:1013500040B9000054B3000004B900000199039A99
:1013600013465B0013449B000B4403F50E731A688D
:10137000AC491346DB0013440B4401331B781A4677
:10138000A94B9B5C0293A94A029BDB00134459685A
:10139000039A13465B0013449B0003F50E73019AF6
:1013A000134418468847039B01330393019B5B7BDF
:1013B0001A46039B9342D1D30023039329E001995A
:1013C000039A13469B001344DB000B4440331A6816
:1013D00094491346DB0013440B4401331B781A462F
:1013E000934B9B5C02939349029A13469B001344D0
:1013F0009B000B4404331968039A13469B00134463
:10140000DB004033019A134418468847039B01339D
:101410000393019B9B7A1A46039B9342CFD30023ED
:10142000039329E00199039A13469B0013449B0000
:101430000B4403F574731A687A491346DB001344AE
:101440000B4401331B781A467B4B9B5C02937B4A0F
:10145000029B1B01134404331C68039A13469B0030
:1014600013449B0003F57473019A134403991846BF
:10147000A047039B01330393019B9B7C1A46039B6C
:101480009342CFD3002303932AE00199039A134692
:101490009B0013449B000B442C331A68614913468C
:1014A000DB0013440B4401331B781A46644B9B5CEE
:1014B00002936449029A13469B0013449B000B4419
:1014C00008331968039A13469B0013449B00283382
:1014D000019A1344043318468847039B013303934E
:1014E000019B5B7A1A46039B9342CED3002303935E
:1014F00029E00199039A13469B001344DB000B4437
:1015000040331A6847491346DB0013440B44013348
:101510001B781A46464B9B5C02934649029A134637
:101520009B0013449B000B440C331968039A134629
:101530009B001344DB004033019A1344184688474C
:10154000039B01330393019B9B7A1A46039B9342AF
:10155000CFD30023039325E0019A039B24331B017F
:10156000134404331A682F491346DB0013440B4419
:1015700001331B781A46344B9B5C02933349029A21
:1015800013465B0013449B000B4404331B68039A0F
:101590002432120101990A44043210469847039BF1
:1015A00001330393019B9B7B1A46039B9342D3D346
:1015B000274B00221A70264B00225A70244B01221E
:1015C0009A70234B0022DA7000F09CFA00230393F8
:1015D0004CE0019A039B0D33DB0013445B681D4A0A
:1015E00052F82330032B3BD0019B039A0D3253F862
:1015F00032200C491346DB0013440B4401331B78A3
:101600001A46154B9B5C0293144A029BDB00134461
:101610005B68039A0D32D20001990A44104698473C
:1016200021E000BFF4B3000064B3000040B9000043
:10163000B4B3000000BA0000E4B30000F0B9000049
:1016400074B3000048B90000A4B3000070B90000F2
:101650004C8BFF1F40B80000C4B300002CBA000040
:101660003A4B01221A70039B01330393019BDB7AEF
:101670001A46039B9342ACD3344B1B7883F001038F
:10168000DBB2002B5ED0002303931FE0019A039B83
:101690004E33DB0013445A682D491346DB001344D4
:1016A0000B4401331B781A462A4B9B5C02932A4A4F
:1016B000029B52F83330039A4E32D20001990A4409
:1016C000043210469847039B01330393019B1B7C14
:1016D0001A46039B9342D9D30023039328E0019930
:1016E000039A13469B0013449B000B4403F5747349
:1016F0001A6817491346DB0013440B4401331B7867
:101700001A46164B9B5C0293154A029B1B0113441D
:101710000C331968039A13469B0013449B0003F58E
:101720007473019A134418468847039B013303934B
:10173000019B9B7C1A46039B9342D0D304210198C2
:1017400002F048FF00BF04B010BD00BF4C8BFF1F6C
:10175000F4B3000094B300007CB90000E4B30000CF
:10176000F0B9000000B587B002230593002304936D
:101770002CE0364A049B52F8232035491346DB00FF
:1017800013440B4401331B781A46324B9B5C039382
:101790003149039A13469B0013449B000B440833C2
:1017A0001B682A49049A51F8222010469847029053
:1017B000029B012B02D1012305930DE0029B022B1A
:1017C00001D100230593049B01330493234B9B78A1
:1017D0001A46049B9342CCD3059B002B30D10023A7
:1017E000049327E01E4A049B52F82320184913460D
:1017F000DB0013440B4401331B781A46194B9B5CE6
:1018000003931949039A13465B0013449B000B444E
:1018100008331B681249049A51F822201046984751
:101820000190019B012B02D10123059308E0049B49
:1018300001330493094BDB781A46049B9342D1D3BE
:10184000059B184607B05DF804FB00BFFCB800001C
:10185000F4B30000B4B3000000BA00004C8BFF1FCB
:1018600000B90000A4B3000070B9000000B583B057
:10187000554B1B68002B00F0A280002301932CE045
:10188000514B1A68019B0D33DB0013445B684F4AD0
:1018900052F82330032B1DD14B4B1B68019A0D329C
:1018A00053F832204A491346DB0013440B440133FA
:1018B0001B781A46474B9B5C0093474A009BDB0012
:1018C00013445B68404A1168019A0D32D2000A4401
:1018D00010469847019B013301933B4B1B68DB7A11
:1018E0001A46019B9342CBD33C4B1B78002B66D00E
:1018F0000023019321E0344B1A68019B4E33DB0037
:1019000013445A6832491346DB0013440B44013335
:101910001B781A46324B9B5C0093324A009B52F86C
:101920003330294A1168019A4E32D2000A440432F7
:1019300010469847019B01330193234B1B681B7C86
:101940001A46019B9342D6D3002301932AE01E4BF3
:101950001968019A13469B0013449B000B4403F53E
:1019600074731A681A491346DB0013440B4401339D
:101970001B781A461C4B9B5C00931C4A009B1B0166
:1019800013440C331968104B1868019A13469B00D6
:1019900013449B0003F57473034418468847019B66
:1019A00001330193084B1B689B7C1A46019B9342B1
:1019B000CDD3054B1B680421184602F00BFE00BF77
:1019C00003B05DF804FB00BF448BFF1F40B800006C
:1019D000F4B30000C4B300002CBA00004C8BFF1F0E
:1019E00094B300007CB90000E4B30000F0B900003B
:1019F00000B585B001900C49019A1346DB001344F1
:101A00000B4401331B781A46084B9B5C0393084A2E
:101A1000039B1B01134408331B680198984700BFC0
:101A200005B05DF804FB00BFF4B30000E4B30000B0
:101A3000F0B9000082B00190024A019B136000BF20
:101A400002B07047148BFF1F00B585B001900C49A0
:101A5000019A1346DB0013440B4401331B781A46EA
:101A6000084B9B5C0393084A039BDB0013445B68B1
:101A700001210198984700BF05B05DF804FB00BF45
:101A8000F4B3000094B300007CB9000000B585B049
:101A900001900C49019A1346DB0013440B440133B7
:101AA0001B781A46084B9B5C0393084A039BDB0098
:101AB00013445B6800210198984700BF05B05DF8AA
:101AC00004FB00BFF4B3000094B300007CB9000035
:101AD00000B583B001900091084B00221A70084BAA
:101AE0001B680221184602F075FD0099019802F06A
:101AF00051FC00BF03B05DF804FB00BF108BFF1F5B
:101B0000448BFF1F82B06FF080530193064B5B78CC
:101B1000002B05D0019B013B0193019B002BF9D1C8
:101B200000BF02B0704700BF4C8BFF1F00B583B0F1
:101B300001900091044B1B6800990198984700BFE1
:101B400003B05DF804FB00BF148BFF1F00B585B028
:101B500003900291019200930020FEF7D0FF02460D
:101B6000039B1A60029B00221A6000210098FFF775
:101B700012F80246019B1A6000BF05B05DF804FB35
:101B800000B587B003900291019200238DF81730C1
:101B900000210398FEF7CCFF0246029B1B681A4403
:101BA000029B1A60029B1B68019A9A4202D8012389
:101BB0008DF817309DF81730184607B05DF804FB14
:101BC00082B0019000BF02B0704700B583B00190B1
:101BD000019B002B02D0019800F0ADF800BF03B0CC
:101BE0005DF804FB00B583B00190019B002B02D08F
:101BF000019800F0CDF800BF03B05DF804FB00B51C
:101C000083B00190019B002B02D0019800F0EEF808
:101C100000BF03B05DF804FB00B583B00190019BE9
:101C2000002B02D0019800F0F9F800BF03B05DF876
:101C300004FB00B583B00190019B002B02D00198FA
:101C400000F004F900BF03B05DF804FB00B583B0F9
:101C50000190019B002B02D0019800F00FF900BF0A
:101C600003B05DF804FB00B583B00190019B002B2D
:101C700002D0019800F01AF900BF03B05DF804FB30
:101C800000B583B00190019B002B02D0019800F0B9
:101C900025F900BF03B05DF804FB00B583B00190E7
:101CA000019B002B02D0019800F030F900BF03B077
:101CB0005DF804FB00B583B00190019B002B02D0BE
:101CC000019800F03BF900BF03B05DF804FB00B5DC
:101CD00083B00190019B002B02D0019800F046F9DF
:101CE00000BF03B05DF804FB00B583B00190019B19
:101CF000002B02D0019800F051F900BF03B05DF84D
:101D000004FB00B583B00190019B002B02D0019829
:101D100000F05EF900BF03B05DF804FB00B583B0CE
:101D20000190019B002B02D0019800F08BF900BFBD
:101D300003B05DF804FB86B00190019B1A6811495D
:101D40001346DB0013440B441B780593019B5B682F
:101D50000D4AD35C04930D4A059B52F823301B684F
:101D60000393039B23F007030393039A049B1343FA
:101D70000393064A059B52F82330039A1A6000BF6A
:101D800006B07047F4B30000ECB7000030B80000B4
:101D900086B00190019B1A6811491346DB00134479
:101DA0000B441B780593019B5B680E4AD35C04933C
:101DB0000D4A059B52F823301B680393039B23F4C1
:101DC000E0630393049B1B02039A13430393064AA5
:101DD000059B52F82330039A1A6000BF06B0704783
:101DE000F4B30000ECB7000030B8000084B00190FC
:101DF000094B5B690393039B23F470230393019BBB
:101E00005B68013B1B04039A13430393024A039B41
:101E1000536100BF04B070470040064084B0019099
:101E2000094B5B690393039B23F0F0030393019B2E
:101E30005B68013B1B01039A13430393024A039B14
:101E4000536100BF04B070470040064084B0019069
:101E5000094B5B690393039B23F00F030393019BDF
:101E60005B68013B039A13430393034A039B53614B
:101E700000BF04B0704700BF0040064084B001902E
:101E8000094B9B690393039B23F470230393019BEA
:101E90005B68013B1B04039A13430393024A039BB1
:101EA000936100BF04B070470040064084B00190C9
:101EB000094B9B690393039B23F0F0030393019B5E
:101EC0005B68013B1B01039A13430393024A039B84
:101ED000936100BF04B070470040064084B0019099
:101EE000094B9B690393039B23F00F030393019B0F
:101EF0005B68013B039A13430393034A039B93617B
:101F000000BF04B0704700BF0040064084B001909D
:101F1000094BDB690393039B23F470230393019B19
:101F20005B68013B1B04039A13430393024A039B20
:101F3000D36100BF04B070470040064084B00190F8
:101F4000094BDB690393039B23F0F0030393019B8D
:101F50005B68013B1B01039A13430393024A039BF3
:101F6000D36100BF04B070470040064084B00190C8
:101F7000094BDB690393039B23F00F030393019B3E
:101F80005B68013B039A13430393034A039BD361AA
:101F900000BF04B0704700BF0040064084B001900D
:101FA0000A4B5B680393039B23F4E0630393019B59
:101FB0005B68013B1B0203F4E063039A1343039342
:101FC000024A039B536000BF04B070470080044086
:101FD00084B001901949019B1A6819481346DB0027
:101FE0001344034405331B7851F823300393039BB8
:101FF00023F00F030393019B5B68013B03F007038E
:10200000039A13430393019B1B7A013BDB0003F00C
:102010000803039A134303930849019B1A6808486D
:102020001346DB001344034405331B781A46039B15
:1020300041F8223000BF04B0704700BF0050064096
:10204000F4B3000084B00190104B9B6E0F4A23F054
:10205000805393660D4B9B6E0393039B23F00F03FA
:102060000393019B5B68013B5B0003F00E02019B45
:102070001B7A013B03F001031343039A13430393B9
:10208000024A039B936600BF04B07047008004407F
:1020900082B0019000BF02B07047000082B0019092
:1020A00000BF02B0704782B0019000BF02B070471D
:1020B00000B583B00190019B002B02D0019800F085
:1020C0006AF800BF03B05DF804FB00B583B001906F
:1020D000019B002B02D0019800F084F800BF03B0F0
:1020E0005DF804FB00B589B0019000238DF81F3026
:1020F000019B002B31D01B4BD3F8003103F00103BF
:10210000002B2AD003AA04A905A84CF25033FFF7EC
:102110001DFD144BD3F800311B0E03F00103069391
:10212000039A04A905AB1846FFF72AFD03468DF86C
:102130001F30069B002B06D19DF81F3083F0010352
:10214000DBB2002BE5D19DF81F30002B05D0019BA1
:102150001B6819460120FFF7E9FC00BF09B05DF8D4
:1021600004FB00BF0040064000B583B00190019819
:1021700000F0C0F800BF03B05DF804FB00B583B009
:102180000190019B002B02D0019800F0C3F800BF22
:1021900003B05DF804FB82B00190114BD3F800311D
:1021A0000F4A23F40003C2F800310D4BD3F800317D
:1021B0000B4A23F48033C2F80031094BD3F80031C5
:1021C000074A23F40033C2F80031054BD3F800313D
:1021D000034A23F00103C2F8003100BF02B0704788
:1021E0000040064082B00190019B1B89012B74D1F5
:1021F000019BDB7B002B02D0012B09D011E0394B76
:10220000D3F80831374A23F00803C2F8083108E050
:10221000344BD3F80831334A43F00803C2F808318D
:1022200000BF304BD3F808312E4A23F03003C2F8F8
:102230000831019B5B682C4A93420DD9019B5B6876
:102240002A4A934208D2274BD3F80831254A43F053
:102250002003C2F8083107E0224BD3F80831214AA5
:1022600043F03003C2F80831019B1B7B002B08D1DF
:102270001C4BD3F808311B4A43F00403C2F8083161
:1022800007E0184BD3F80831164A23F00403C2F8CC
:102290000831019B1B7C022B11D0022B14DC002B7C
:1022A00002D0012B05D00FE00E4B0122C3F8002114
:1022B00014E00C4B4FF00112C3F800210EE0094B63
:1022C0000B4AC3F8002109E0064BD3F80031054A58
:1022D00043F00103C2F8003100E000BF00BF02B0CC
:1022E000704700BF00400640FF083D0000127A0022
:1022F0000100030082B00190054BD3F80031044A7D
:1023000023F00103C2F8003100BF02B0704700BFE4
:102310000040064082B00190019B1B89012B07D130
:10232000054BD3F80031044A43F00103C2F80031F1
:1023300000BF02B0704700BF0040064082B001906D
:1023400000BF02B0704782B001900023184602B06F
:10235000704782B00190009100BF02B0704700004A
:1023600082B0019000BF02B0704782B001900B466E
:102370008DF8033000BF02B0704700B583B0019004
:10238000019B002B02D0019800F0E7F800BF03B0DA
:102390005DF804FB00B585B001900B468DF8033065
:1023A000019B02939DF80330002B03D00023ADF86E
:1023B0000C3002E00123ADF80C3002AB1846FFF7F9
:1023C000DCFF00BF05B05DF804FB00B583B00190F1
:1023D000019B002B02D0019800F0D6F800BF03B09B
:1023E0005DF804FB00B585B001900B468DF8033015
:1023F000019B02939DF80330002B03D00023ADF81E
:102400000C3002E00123ADF80C3002AB1846FFF7A8
:10241000DCFF00BF05B05DF804FB00B583B00190A0
:10242000019B002B02D0019800F0C6F800BF03B05A
:102430005DF804FB00B585B001900B468DF80330C4
:10244000019B02939DF80330002B03D00023ADF8CD
:102450000C3002E00123ADF80C3002AB1846FFF758
:10246000DCFF00BF05B05DF804FB00B583B0019050
:10247000019B002B02D0019800F0B6F800BF03B01A
:102480005DF804FB00B585B001900B468DF8033074
:10249000019B02939DF80330002B03D00023ADF87D
:1024A0000C3002E00123ADF80C3002AB1846FFF708
:1024B000DCFF00BF05B05DF804FB00B583B0019000
:1024C000019B002B02D0019800F0BCF800BF03B0C4
:1024D0005DF804FB00B585B001900B468DF8033024
:1024E000019B02939DF80330002B03D00023ADF82D
:1024F0000C3002E00123ADF80C3002AB1846FFF7B8
:10250000DCFF00BF05B05DF804FB00B583B00190AF
:10251000019B002B02D0019800F0C0F800BF03B06F
:102520005DF804FB00B585B001900B468DF80330D3
:10253000019B02939DF80330002B03D00023ADF8DC
:102540000C3002E00123ADF80C3002AB1846FFF767
:10255000DCFF00BF05B05DF804FB84B00190094BBF
:102560001B690393039B23F001030393019B9B8847
:102570001A46039B13430393024A039B136100BF54
:1025800004B070470080044084B00190094B1B697F
:102590000393039B23F002030393019B9B885B003F
:1025A000039A13430393034A039B136100BF04B0D0
:1025B000704700BF0080044084B00190094B5B6805
:1025C0000393039B23F400630393019B9B88DB022B
:1025D000039A13430393034A039B536000BF04B061
:1025E000704700BF0080044084B001901349019BF4
:1025F0001A6813481346DB001344034406331B7860
:1026000051F823300393039B23F080430393019BF2
:102610009B889B07039A134303930849019B1A68FD
:1026200007481346DB001344034406331B781A465D
:10263000039B41F8223000BF04B0704700500640B1
:10264000F4B3000086B00190019B9B880593019B29
:102650001A6810491346DB0013440B4406331B78F9
:1026600004930D4B1B6C03930122049B02FA03F3AA
:10267000DB43039A13400393059A049B02FA03F386
:10268000039A13430393044A039B136400BF06B0E9
:10269000704700BFF4B300000080044084B0019094
:1026A0000A4B9B6E0393019B9B88012B04D1039BD8
:1026B00043F08053039303E0039B23F08053039381
:1026C000024A039B936600BF04B070470080044039
:1026D00082B0019000BF02B0704782B0019000BF8D
:1026E00002B0704700B583B00190019B002B02D06F
:1026F000019800F0D1F800BF03B05DF804FB00B50D
:1027000083B00190019B002B02D0019800F050F99A
:1027100000BF03B05DF804FB00B583B001900198E1
:1027200000F08EF900BF03B05DF804FB00B583B084
:102730000190019B002B02D0019800F099F900BF95
:1027400003B05DF804FB00B583B00190019B002B42
:1027500002D0019800F0B0F900BF03B05DF804FBAF
:1027600000B583B00190019800F0BAF900BF03B042
:102770005DF804FB00B583B00190019B002B02D0F3
:10278000019800F0BDF900BF03B05DF804FB00B58F
:1027900083B00190019B002B02D0019800F0D4F986
:1027A00000BF03B05DF804FB00B583B00190019851
:1027B00000F0DEF900BF03B05DF804FB00B589B09E
:1027C000019000238DF81F30204B5B690693069B18
:1027D00023F070630693019B1B06069A134306932E
:1027E0001A4A069B536102AA03A904A84CF250336B
:1027F000FFF7ACF9154B1B691B0E03F00F03019A91
:102800009A420CBF01230023DBB20593029A03A96D
:1028100004AB1846FFF7B4F903468DF81F30059B4B
:10282000002B06D19DF81F3083F00103DBB2002B93
:10283000E0D19DF81F30002B03D005210120FFF7C8
:1028400075F900BF09B05DF804FB00BF0040064009
:1028500000B583B00190019B002B02D0019800F0DD
:1028600097F900BF03B05DF804FB00B583B0019099
:10287000019B002B02D0019800F07EFA00BF03B04C
:102880005DF804FB00B583B00190019800F0B8FA40
:1028900000BF03B05DF804FB00B58BB001900023CE
:1028A0008DF82730019B002B0BD1052302930123C8
:1028B0008DF80F300123ADF80C3001238DF8103066
:1028C0000EE0019B1B680293019BDB798DF80F30B2
:1028D000019B9B88ADF80C30019B1B7A8DF8103062
:1028E000324BD3F80032314A23F40003C2F80032ED
:1028F0002E4BD3F800322D4A23F00103C2F80032E8
:102900002A4BD3F80032294A23F00403C2F80032DC
:10291000BDF80C30012B44D19DF80F30234A03F051
:102920000103C2F80832214BD3F800321F4A43F0AA
:102930000103C2F800321D4BD3F800229DF810307D
:102940009B0003F0040319491343C1F8003205AAA0
:1029500006A907A84CF25033FFF7F8F8134BD3F849
:1029600000321B0E03F001030893059A06A907AB7A
:102970001846FFF705F903468DF82730089B002B12
:1029800006D19DF8273083F00103DBB2002BE5D19F
:102990009DF82730002B04D0029B19460120FFF739
:1029A000C5F800BF0BB05DF804FB00BF0040064057
:1029B00000B589B0019000238DF81F301F4BD3F86C
:1029C00000321E4A43F00103C2F800321B4BD3F819
:1029D00000321A4A43F00403C2F8003203AA04A9E1
:1029E00005A84CF25033FFF7B1F8144BD3F800327E
:1029F0001B0E03F001030693039A04A905AB1846C6
:102A0000FFF7BEF803468DF81F30069B002B06D15A
:102A10009DF81F3083F00103DBB2002BE5D19DF858
:102A20001F30002B05D0019B1B6819460120FFF7C2
:102A30007DF800BF09B05DF804FB00BF0040064010
:102A400082B00190094BD3F80032084A23F0010309
:102A5000C2F80032054BD3F80032044A23F00403D5
:102A6000C2F8003200BF02B0704700BF004006400D
:102A700082B001900F4BD3F800320E4A23F40003CA
:102A8000C2F800320B4BD3F800320A4A23F0040399
:102A9000C2F80032074BD3F80022019B1B7A9B003F
:102AA00003F0040303491343C1F8003200BF02B02E
:102AB000704700BF0040064082B00190019B9B8898
:102AC000012B07D1054BD3F80032044A43F004032D
:102AD000C2F8003200BF02B0704700BF004006409D
:102AE00082B00190054BD3F80032044A23F004036E
:102AF000C2F8003200BF02B0704700BF004006407D
:102B000082B001900F4BD3F800320E4A23F4000339
:102B1000C2F800320B4BD3F800320A4A23F002030A
:102B2000C2F80032074BD3F80022019B5B7A5B00AE
:102B300003F0020303491343C1F8003200BF02B09F
:102B4000704700BF0040064082B00190019B9B8807
:102B5000012B07D1054BD3F80032044A43F002039E
:102B6000C2F8003200BF02B0704700BF004006400C
:102B700082B00190054BD3F80032044A23F00203DF
:102B8000C2F8003200BF02B0704700BF00400640EC
:102B900000B58BB00190019B1A6875491346DB00A4
:102BA00013440B441B78089300238DF81F30002337
:102BB0008DF827306F4BD3F800336E4A23F40003AF
:102BC000C2F800336B4BD3F8003303F00073002BD3
:102BD0007DD0019BDB791A46664BD3F8083303F0AE
:102BE00003039A420BD1019B9B791A46614BD3F8A0
:102BF0000033DB0803F001039A4200F0B4805D4B20
:102C0000D3F8003203F00103002B05D101238DF826
:102C100027300020FFF766FD0220FFF7CFFD554B60
:102C2000D3F80033534A23F00103C2F80033019B69
:102C30009B88012B40F09780019BDB794D4A03F084
:102C40000303C2F808334B4BD3F80023019B9B7955
:102C5000DB0003F008031343464A43F00103C2F8C4
:102C6000003303AA04A905A84CF25033FEF76EFF07
:102C7000404BD3F800331B0E03F001030693039A75
:102C800004A905AB1846FEF77BFF03468DF81F30FD
:102C9000069B002B06D19DF81F3083F00103DBB2A9
:102CA000002BE5D19DF81F30002B05D0019B1B6840
:102CB00019460120FEF73AFF0320FFF77FFD9DF83C
:102CC0002730002B4FD00220FFF726FD4BE0294B89
:102CD000D3F80033274A23F00103C2F80033019BE5
:102CE0009B88012B3FD1019BDB79224A03F0030330
:102CF000C2F808331F4BD3F80023019B9B79DB00FC
:102D000003F0080313431B4A43F00103C2F80033E6
:102D100003AA04A905A84CF25033FEF717FF154B80
:102D2000D3F800331B0E03F001030693039A04A9A2
:102D300005AB1846FEF724FF03468DF81F30069BAF
:102D4000002B06D19DF81F3083F00103DBB2002B6E
:102D5000E5D19DF81F30002B05D0019B1B6819465B
:102D60000120FEF7E3FE00BF0BB05DF804FB00BFDF
:102D7000F4B300000040064000B589B00190002384
:102D80008DF81F30019B9B88012B32D11B4BD3F850
:102D900000331A4A43F00103C2F8003303AA04A91E
:102DA00005A84CF25033FEF7D1FE144BD3F8003394
:102DB0001B0E03F001030693039A04A905AB184602
:102DC000FEF7DEFE03468DF81F30069B002B06D172
:102DD0009DF81F3083F00103DBB2002BE5D19DF895
:102DE0001F30002B05D0019B1B6819460120FEF700
:102DF0009DFE00BF09B05DF804FB00BF0040064027
:102E000082B00190054BD3F80033044A23F001034C
:102E1000C2F8003300BF02B0704700BF0040064058
:102E200082B0019000BF02B0704782B00190009163
:102E300000BF02B0704782B0019000BF02B070477F
:102E400082B0019000BF02B0704782B001900223AF
:102E5000184602B0704782B0019000BF02B07047C0
:102E600000B583B00190019B002B02D0019800F0C7
:102E700070F800BF03B05DF804FB00B583B00190AB
:102E8000019B002B02D0019800F09AF800BF03B01C
:102E90005DF804FB00B589B001900123079300237E
:102EA0008DF81B301E4BD3F8003603F00103002BC6
:102EB0002FD002AA03A904A84CF25033FEF746FE15
:102EC000174BD3F800361B0E03F001030593029A4B
:102ED00003A904AB1846FEF753FE03468DF81B30DA
:102EE000059B002B06D19DF81B3083F00103DBB25C
:102EF000002BE5D19DF81B3083F00103DBB2002BE2
:102F000002D00223079306E001990120FEF70EFE8E
:102F100001E000230793079B184609B05DF804FB06
:102F20000040064000B583B00190019800F086F89B
:102F300000BF03B05DF804FB00B583B00190019BB6
:102F4000002B02D0019800F091F800BF03B05DF8AB
:102F500004FB82B00190194BD3F80036174A23F4D2
:102F60000003C2F80036154BD3F80036134A23F499
:102F70008033C2F80036114BD3F800360F4A23F4E1
:102F80000033C2F800360D4BD3F800360B4A23F05D
:102F90000103C2F80036094BD3F80836074A23F478
:102FA000E063C2F80836054BD3F80836034A23F429
:102FB000F813C2F8083600BF02B070470040064060
:102FC00082B00190019B9B88012B2FD11A4BD3F823
:102FD0000826019B5B7B013B1B0203F4E061019B24
:102FE0001B7D103B1B0403F4F8130B4312491343DE
:102FF000C1F80836019BDB7F022B11D0022B17DCB6
:10300000002B02D0012B05D012E00B4B0022C3F89D
:1030100000260EE0084B4FF48032C3F8002608E08B
:10302000054B4FF44032C3F8002602E000BF00E039
:1030300000BF00BF02B070470040064082B0019060
:10304000094BD3F80036084A23F40003C2F80036CF
:10305000054BD3F80036044A23F00103C2F80036CA
:1030600000BF02B0704700BF0040064082B0019030
:10307000019B9B88012B07D1054BD3F80036044AEE
:1030800043F00103C2F8003600BF02B0704700BF32
:103090000040064082B00190009100BF02B070472E
:1030A00082B0019000BF02B0704700B583B00190BC
:1030B000019B002B02D0019800F0EEF800BF03B096
:1030C0005DF804FB00B583B00190019B002B02D09A
:1030D000019800F0FFF800BF03B05DF804FB00B5F5
:1030E00083B00190019B002B02D0019800F012F9EF
:1030F00000BF03B05DF804FB00B583B00190019BF5
:10310000002B02D0019800F025F900BF03B05DF854
:1031100004FB00B583B00190019B002B02D0019805
:1031200000F036F900BF03B05DF804FB00B583B0D2
:103130000190019B002B02D0019800F049F900BFDB
:1031400003B05DF804FB00B583B00190019B002B38
:1031500002D0019800F058F900BF03B05DF804FBFD
:1031600000B583B00190019B002B02D0019800F0C4
:1031700069F900BF03B05DF804FB00B583B00190AE
:10318000019B002B02D0019800F078F900BF03B03A
:103190005DF804FB00B583B00190019B002B02D0C9
:1031A000019800F089F900BF03B05DF804FB00B599
:1031B00083B00190019B002B02D0019800F098F998
:1031C00000BF03B05DF804FB00B583B00190019B24
:1031D000002B02D0019800F0A9F900BF03B05DF800
:1031E00004FB00B583B00190019B002B02D0019835
:1031F00000F0E6F900BF03B05DF804FB00B583B052
:103200000190019B002B02D0019800F025FA00BF2D
:1032100003B05DF804FB00B583B00190019B002B67
:1032200002D0019800F02AFA00BF03B05DF804FB59
:1032300000B583B00190019B002B02D0019800F0F3
:103240003BFA00BF03B05DF804FB00B583B001900A
:10325000019B002B02D0019800F056FA00BF03B08A
:103260005DF804FB00B583B00190019B002B02D0F8
:10327000019800F079FA00BF03B05DF804FB00B5D7
:1032800083B00190019B002B02D0019800F08AFAD4
:1032900000BF03B05DF804FB84B001900B4B5B7979
:1032A00003930B4B5B690293029B23F070630293C1
:1032B000039B1B0603F07063029A13430293044AB4
:1032C000029B536100BF04B0704700BF5CB70000B1
:1032D0000040064084B00190019B5B680B4AD35CC0
:1032E00003930B4B5B690293029B23F07063029381
:1032F000039B1B0603F07063029A13430293044A74
:10330000029B536100BF04B0704700BF5CB7000070
:103310000040064084B00190019B5B680B4AD35C7F
:1033200003930B4B9B690293029B23F07063029300
:10333000039B1B0603F07063029A13430293044A33
:10334000029B936100BF04B0704700BF5CB70000F0
:103350000040064084B001900B4B5B7903930B4B0C
:10336000DB690293029B23F070630293039B1B06AD
:1033700003F07063029A13430293044A029BD361E1
:1033800000BF04B0704700BF5CB7000000400640BB
:1033900084B00190019B5B680B4AD35C03930B4B99
:1033A000DB690293029B23F070630293039B1B066D
:1033B00003F07063029A13430293044A029BD361A1
:1033C00000BF04B0704700BF5CB70000004006407B
:1033D00084B001900A4B9B7B03930A4B1B690293B9
:1033E000029B23F030030293039B1B01029A1343B9
:1033F0000293044A029B136100BF04B0704700BFF0
:1034000004B700000080044084B00190019B5B6819
:103410000A4AD35C03930A4B1B690293029B23F075
:1034200030030293039B1B01029A13430293044A45
:10343000029B136100BF04B0704700BF04B70000D7
:103440000080044084B001900A4B5B7803930A4BE0
:103450001B690293029B23F00C030293039B9B00C6
:10346000029A13430293044A029B136100BF04B003
:10347000704700BFBCB700000080044084B00190DA
:10348000019B5B680A4AD35C03930A4B1B69029356
:10349000029B23F00C030293039B9B00029A1343AD
:1034A0000293044A029B136100BF04B0704700BF3F
:1034B000BCB700000080044084B001900A4B5B79E7
:1034C00003930A4B1B6A0293029B23F070630293DF
:1034D000039B1B06029A13430293044A029B136246
:1034E00000BF04B0704700BF5CB70000004006405A
:1034F00084B00190019B5B680A4AD35C03930A4B3A
:103500001B6A0293029B23F070630293039B1B06CA
:10351000029A13430293044A029B136200BF04B051
:10352000704700BF5CB700000040064086B00190C5
:10353000204B5B790493019B1A681F491346DB00FB
:1035400013440B441B7803931C4BDB680593039BCC
:10355000032B13D8039B5B001833032202FA03F3F7
:10356000DB43059A13400593039B5B001833049AD1
:1035700002FA03F3059A1343059314E0039B043BFB
:103580005B001033032202FA03F3DB43059A134076
:103590000593039B043B5B001033049A02FA03F388
:1035A000059A13430593054A059BD36000BF06B0F7
:1035B000704700BF04B70000F4B30000008004406F
:1035C00086B00190019B5B68204AD35C0493019B09
:1035D0001A681F491346DB0013440B441B780393FE
:1035E0001C4BDB680593039B032B13D8039B5B00E9
:1035F0001833032202FA03F3DB43059A13400593C1
:10360000039B5B001833049A02FA03F3059A1343F1
:10361000059314E0039B043B5B001033032202FA82
:1036200003F3DB43059A13400593039B043B5B00C4
:103630001033049A02FA03F3059A13430593054ADB
:10364000059BD36000BF06B0704700BF04B7000001
:10365000F4B300000080044084B00190064B5B6826
:103660000393039B23F40F630393034A039B536069
:1036700000BF04B0704700BF0080044084B00190D8
:10368000019B5B680A4AD35C03930A4B5B68029315
:10369000029B23F0F0030293039B1B01029A134346
:1036A0000293044A029B536000BF04B0704700BFFE
:1036B00004B700000080044084B00190019B1A68A8
:1036C0000F491346DB0013440B4404331B78039368
:1036D0000C4A039B52F823300A4923F08042039B93
:1036E00041F82320074A039B52F82330054923F071
:1036F000E062039B41F8232000BF04B0704700BF85
:10370000F4B300000050064086B00190019B1A6897
:1037100012491346DB0013440B4404331B78059312
:10372000019B5B680E4AD35C04930E4A059B52F8DA
:1037300023300393039B23F0E0630393049B1B0656
:1037400003F0E063039A134303930649059B039A2E
:1037500041F8232000BF06B0704700BFF4B300005B
:103760008CB700000050064084B001900B4B1B7FCB
:1037700003930B4B5B680293029B23F480530293E9
:10378000039B1B0303F48053029A13430293044ADE
:10379000029B536000BF04B0704700BF04B7000035
:1037A0000080044084B00190019B5B680B4AD35CAD
:1037B00003930B4B5B680293029B23F480530293A9
:1037C000039B1B0303F48053029A13430293044A9E
:1037D000029B536000BF04B0704700BF04B70000F5
:1037E0000080044000B585B0019000238DF80B30B7
:1037F000019B002B37D0002303932BE0294B196842
:10380000039A13465B0013449B000B4414331B685C
:10381000052B1CD101238DF80B30224B1968039A1C
:1038200013465B0013449B000B4418331B88002B8A
:1038300018D11D4B1B7919461C4A0B465B000B44E3
:103840009B00134408331B68052098470AE0039B3C
:1038500001330393134B1B681B7A1A46039B934255
:10386000CCD300E000BF9DF80B3083F00103DBB246
:10387000002B13D00E4B1B7883F00103DBB2002B1F
:103880000CD0094B1B791946084A0B465B000B44C8
:103890009B00134408331B680520984700BF05B000
:1038A0005DF804FBA88BFF1F84B30000B4B90000CF
:1038B000188BFF1F064B0022C3F80823044BD3F8D4
:1038C0000033034A43F00103C2F8003300BF7047DE
:1038D0000040064084B00190032303930023029329
:1038E00028E0019B029A0D3253F83230282B0BD17D
:1038F000019A029B0D33DB0013445B682B4AD35CB7
:103900001B01039A13430393019B029A0D3253F850
:103910003230292B0BD1019A029B0D33DB0013446B
:103920005B68234AD35C9B00039A13430393029B77
:1039300001330293019BDB7A1A46029B9342D0D358
:103940000023029326E0019A029B4E33DB001344CE
:103950005B68122B09D1019A029B4E33DB001344A2
:103960001B895B00039A13430393019A029B4E3316
:10397000DB0013445B68132B09D1019A029B4E3381
:10398000DB0013441B891A46039B13430393029BDA
:1039900001330293019B1B7C1A46029B9342D2D3B4
:1039A000044A039B136100BF04B0704704B70000D2
:1039B000BCB700000080044000B589B0019000232E
:1039C0008DF81F30214A019B1360214BD3F800333F
:1039D00003F00103002B2ED11E4B00221A70FFF7BB
:1039E00069FF03AA04A905A84CF25033FEF7AEF80C
:1039F000174BD3F800331B0E03F001030693039A11
:103A000004A905AB1846FEF7BBF803468DF81F3036
:103A1000069B002B06D19DF81F3083F00103DBB21B
:103A2000002BE5D19DF81F30002B07D00521012088
:103A3000FEF77CF802E0074B01221A700198FFF7AD
:103A400049FF00BF09B05DF804FB00BFA88BFF1F52
:103A500000400640188BFF1F82B000230093294BC3
:103A60001B68002B24D0002301931AE0254B196812
:103A7000019A13465B0013449B000B4414331B68EC
:103A8000052B0BD11F4B1968019A13465B00134499
:103A90009B0010330B440433009309E0019B013376
:103AA0000193184B1B681B7A1A46019B9342DDD386
:103AB000009B002B21D1144B0093134B05221A605D
:103AC000124BD3F800339BB203F001039AB20E4BB2
:103AD0009A800E4BD3F80833DBB203F00303DAB25B
:103AE000094BDA71094BD3F80033DBB2DB10DBB2E0
:103AF00003F00103DAB2044B9A71009B184602B03E
:103B0000704700BFA88BFF1F148CFF1F00400640AA
:103B100082B000230093204B1B68002B24D000238D
:103B200001931AE01C4B1968019A13469B00134439
:103B30009B000B442C331B68082B0BD1164B1968C8
:103B4000019A13469B0013449B0028330B44043313
:103B5000009309E0019B013301930F4B1B685B7AD3
:103B60001A46019B9342DDD3009B002B10D10B4BD7
:103B700000930A4B08221A60094BD3F800319BB21C
:103B800003F001039AB2054B1A81044B054A5A60AF
:103B9000009B184602B07047A88BFF1F208CFF1FA8
:103BA00000400640005A620282B000230093284B76
:103BB0001B68002B23D00023019319E0244B1968C4
:103BC000019A13469B001344DB000B4440331B68EF
:103BD000092B0AD11E4B1968019A13469B00134406
:103BE000DB0040330B44009309E0019B0133019358
:103BF000174B1B689B7A1A46019B9342DED3009BAE
:103C0000002B21D1134B0093124B09221A60124B47
:103C1000D3F800369BB203F001039AB20D4B9A80A1
:103C20000D4BD3F808361B0ADBB203F00703DAB2F8
:103C3000084B5A73084BD3F808361B0CDBB203F061
:103C40001F03DAB2034B1A75009B184602B0704787
:103C5000A88BFF1F348CFF1F0040064086B00190E8
:103C600000230593019B1B2B0FD0019B1B2B0FD80F
:103C7000019B192B03D0019B1A2B03D008E00023D2
:103C8000049308E00123049305E00223049302E077
:103C90000023049300BF364B1B68002B1DD000236C
:103CA000039313E0324B1B68039A0D3253F8323002
:103CB000019A9A4207D12E4B1A68039B0D33DB0001
:103CC0001344059309E0039B01330393284B1B68BE
:103CD000DB7A1A46039B9342E4D3059B002B40D129
:103CE000049BDB00234A134405932249049B019A59
:103CF00041F83320019B1B2B25D0019B1B2B32D875
:103D0000019B192B03D0019B1A2B0ED02BE01A4BD1
:103D10005B691B0E03F00F03184A52F82320154964
:103D2000049BDB000B445A601EE0134B9B691B0E87
:103D300003F00F03114A52F823200E49049BDB00C5
:103D40000B445A6010E00C4BDB691B0E03F00F03B1
:103D50000A4A52F823200749049BDB000B445A60AF
:103D600002E000BF00E000BF059B184606B07047A8
:103D7000A88BFF1F5C8CFF1F0040064084BA000028
:103D800086B001900023059300230493019B1F2B11
:103D90000FD0019B1F2B0FD8019B1D2B03D0019B24
:103DA0001E2B03D008E00023049306E001230493B4
:103DB00003E00223049300E000BF414B1B68002B8B
:103DC00026D0002303931CE03D4B1968039A134649
:103DD0005B0013449B000B4403F5A4731B68019A1A
:103DE0009A420BD1364B1968039A13465B00134471
:103DF0009B0003F5A4730B44059309E0039B013377
:103E000003932F4B1B681B7B1A46039B9342DBD308
:103E1000059B002B4DD1049A13465B0013449B0075
:103E2000284A134405932749049A13465B00134418
:103E30009B000B44019A1A60019B1F2B29D0019B08
:103E40001F2B38D8019B1D2B03D0019B1E2B10D09C
:103E500031E01D4B5B691B0C03F00F03591C194823
:103E6000049A13465B0013449B0003440433196017
:103E700022E0154B9B691B0C03F00F03591C1148E2
:103E8000049A13465B0013449B00034404331960F7
:103E900012E00D4BDB691B0C03F00F03591C0948A2
:103EA000049A13465B0013449B00034404331960D7
:103EB00002E000BF00E000BF059B184606B0704757
:103EC000A88BFF1F748CFF1F0040064086B0019036
:103ED0000023059300230493019B232B0FD0019B08
:103EE000232B0FD8019B212B03D0019B222B03D026
:103EF00008E00023049306E00123049303E0022377
:103F0000049300E000BF414B1B68002B26D0002328
:103F100003931CE03D4B1968039A13465B0013445E
:103F20009B000B4403F5A4731B68019A9A420BD1C2
:103F3000364B1968039A13465B0013449B0003F544
:103F4000A4730B44059309E0039B013303932F4BA8
:103F50001B681B7B1A46039B9342DBD3059B002BFC
:103F60004DD1049A13465B0013449B00284A134426
:103F700005932749049A13465B0013449B000B44A6
:103F8000019A1A60019B232B29D0019B232B38D83F
:103F9000019B212B03D0019B222B10D031E01D4B24
:103FA0005B691B0903F00F03591C1948049A134657
:103FB0005B0013449B0003440433196022E0154B5B
:103FC0009B691B0903F00F03591C1148049A1346FF
:103FD0005B0013449B0003440433196012E00D4B53
:103FE000DB691B0903F00F03591C0948049A1346A7
:103FF0005B0013449B0003440433196002E000BFDC
:1040000000E000BF059B184606B07047A88BFF1F55
:10401000988CFF1F0040064086B001900023059356
:1040200000230493019B272B0FD0019B272B0FD834
:10403000019B252B03D0019B262B03D008E00023F6
:10404000049306E00123049303E00223049300E0B9
:1040500000BF404B1B68002B26D0002303931CE0BD
:104060003C4B1968039A13465B0013449B000B44B6
:1040700003F5A4731B68019A9A420BD1354B19685A
:10408000039A13465B0013449B0003F5A4730B448F
:10409000059309E0039B013303932E4B1B681B7BA5
:1040A0001A46039B9342DBD3059B002B4AD1049A0B
:1040B00013465B0013449B00274A1344059326498B
:1040C000049A13465B0013449B000B44019A1A6048
:1040D000019B272B27D0019B272B35D8019B252B14
:1040E00003D0019B262B0FD02EE01C4B5B6903F005
:1040F0000F03591C1848049A13465B0013449B0095
:1041000003440433196020E0144B9B6903F00F0350
:10411000591C1148049A13465B0013449B00034446
:104120000433196011E00D4BDB6903F00F03591CD8
:104130000948049A13465B0013449B00034404336C
:10414000196002E000BF00E000BF059B184606B002
:10415000704700BFA88BFF1FBC8CFF1F00400640AC
:1041600000B583B00190644B1B7883F00103DBB290
:10417000002B5BD0604B01221A70604B5B781A46B3
:1041800013469B0013449B005D4A13445D4A136031
:104190005D4B5B781A4613469B0013449B005B4AB9
:1041A00013445B4A13605B4B1B791A4613465B0052
:1041B00013449B00584A1344584A1360584B5B7988
:1041C000DB00584A1344584A1360554BDB79DB0037
:1041D000544A1344554A1360554B9B799B00554AEA
:1041E0001344554A1360524B1B7A9B00514A1344A7
:1041F000524A13604E4B5B7A9B004E4A1344504A1E
:1042000013604B4BDB7A9B004A4A13444D4A1360C0
:10421000474B1B7B9B00474A13444B4A1360444B5C
:104220009B7B9B00434A1344484A1360484B1B78CE
:10423000002B02D0019B002B03D0464B1B78002B98
:1042400056D0FFF709FC0346434A1360FFF760FCB2
:104250000346424A1360FFF7A7FC0346404A136037
:104260001920FFF7FBFC03463E4A13601A20FFF7B4
:10427000F5FC03463C4A13601B20FFF7EFFC0346A6
:104280003A4A13601D20FFF77BFD0346384A13604E
:104290001E20FFF775FD0346364A13601F20FFF707
:1042A0006FFD0346344A13602120FFF70FFE0346DB
:1042B000324A13602220FFF709FE0346304A13609A
:1042C0002320FFF703FE03462E4A13602520FFF745
:1042D000A3FE03462C4A13602620FFF79DFE0346EB
:1042E0002A4A13602720FFF797FE0346284A1360E7
:1042F00000BF03B05DF804FBE08CFF1FB4B3000007
:1043000000BA0000AC8BFF1F74B3000048B9000076
:10431000B08BFF1F84B30000B4B90000B48BFF1F43
:10432000C4B300002CBA0000B88BFF1FF48BFF1F32
:1043300054B3000004B90000BC8BFF1FF88BFF1FB3
:10434000C08BFF1FFC8BFF1FC48BFF1F008CFF1F48
:10435000198BFF1F108BFF1FC88BFF1FCC8BFF1FFC
:10436000D08BFF1FD48BFF1FD88BFF1F048CFF1F28
:10437000DC8BFF1FE08BFF1F088CFF1FE48BFF1FF0
:10438000E88BFF1F0C8CFF1FEC8BFF1FF08BFF1FB8
:10439000108CFF1F00B583B001900091019B032B8F
:1043A00000F09080019B032B00F2D380019B002B37
:1043B00040D0019B013B012B00F2CB80009B002BE6
:1043C00040F0C980684B00221A70684B1B685B681C
:1043D000674A126810469847664B1B681B68664A16
:1043E000126810469847654B1B681B68644A126840
:1043F00010469847634B1B681B68634A1268104657
:104400009847624B1B681B69614A12681268104624
:104410009847604B1B68DB685F4A12681268104659
:1044200098475E4B1B689B685D4A1268126810468D
:10443000984790E0009B022B40F08F804A4B01226E
:104440001A70564B1B685B68554A126810469847AD
:10445000504B1B681B69504A1268104698474D4BD9
:104460001B689B684C4A126810469847474B1B686C
:10447000DB68474A126810469847444B1B689B68A4
:10448000434A1268126810469847384B1B685B68AD
:10449000444A126810469847364B1B681B68424ACC
:1044A000126810469847354B1B681B683F4A1268D4
:1044B00010469847334B1B681B683D4A12681046EC
:1044C00098474AE0009B022B49D1274B01221A70E2
:1044D000324B1B685B68324A1268104698472D4B76
:1044E0001B681B692C4A126810469847294B1B68A9
:1044F0009B68294A126810469847244B1B68DB6862
:10450000234A126810469847204B1B689B68204A34
:104510001268126810469847264B1B685B68264A4B
:10452000126810469847254B1B681B68244A12687E
:1045300010469847234B1B681B68234A1268104695
:104540009847224B1B681B68214A126810469847FF
:1045500005E000BF04E000BF02E000BF00E000BFD4
:1045600000BF03B05DF804FB198BFF1FB88BFF1F62
:10457000D88BFF1FBC8BFF1FE08BFF1FC08BFF1F63
:10458000E88BFF1FC48BFF1FF08BFF1FAC8BFF1F3F
:10459000D08BFF1FB08BFF1FCC8BFF1FB48BFF1F77
:1045A000C88BFF1FD48BFF1FDC8BFF1FE48BFF1F0B
:1045B000EC8BFF1FF48BFF1F048CFF1FF88BFF1F7A
:1045C000088CFF1FFC8BFF1F0C8CFF1F008CFF1F34
:1045D000108CFF1F00B583B001900091009B042B4D
:1045E00010D0009B042B11D8009B012B06D0009B00
:1045F000022B0BD10198FFF7B3FD08E00198FFF7FC
:10460000DBF904E00198FFF7EDF800E000BF00BF20
:1046100003B05DF804FB00BF00B585B00190204AEF
:10462000019B13600023039310E01D4B1B68196965
:10463000039A13465B0013449B000B441B68039AC8
:10464000D1B2184AD154039B01330393144B1B6816
:104650009B68039A9A42E8D30023039310E0104B1F
:104660001B685969039A1346DB019B1ADB000B4454
:104670001B68039AD1B20C4AD154039B01330393B4
:10468000074B1B68DB68039A9A42E8D3044B1B680C
:104690009B69184600F08AF800BF05B05DF804FB7E
:1046A000EC8CFF1FE88CFF1FE48CFF1F84B001908F
:1046B00001238DF80F309DF80F30184604B0704775
:1046C00000B585B001900E4A019B13441B788DF80C
:1046D0000F300C4B1B6859699DF80F201346DB0106
:1046E0009B1ADB000B44184600F06AF800238DF893
:1046F0000E309DF80E30184605B05DF804FB00BF83
:10470000E48CFF1FEC8CFF1F00B585B001900D4AB3
:10471000019B13441B788DF80F3004F0F7F80A4B17
:104720001B6819699DF80F2013465B0013449B001A
:104730000B44184600F04EF804F014F900BF05B021
:104740005DF804FBE88CFF1FEC8CFF1F82B0022396
:104750000193019B184602B0704700B583B000F08A
:1047600043F80190019B184603B05DF804FB00B5C7
:1047700083B000F03FF80190019B184603B05DF84C
:1047800004FB00B583B00190019800F039F800BF38
:1047900003B05DF804FB82B00190034B1B68002B53
:1047A00000BF02B0704700BFEC8CFF1F00B583B0A4
:1047B0000190019800F082F800BF03B05DF804FB9F
:1047C00000B583B001900198FCF76AFC00BF03B00C
:1047D0005DF804FB00B583B00190019800F020F86B
:1047E00000BF03B05DF804FB08B500F04FF80346C6
:1047F000184608BD08B500F057F80346184608BD2E
:1048000000B583B00190019B002B02D100F06CF841
:1048100001E000F06EF800BF03B05DF804FB00009B
:1048200000B585B00190019B5B680293029800F08F
:10483000F5F90346002B02D00123039303E001980E
:1048400000F01EFA0390039B012B03D1FF210320EC
:1048500000F0F4F800BF05B05DF804FB84B00190EF
:104860000C230393084A019B52F823300E2B05D8E2
:10487000054A019B52F82330039301E00C23039374
:10488000039B184604B07047A0BA000000B583B07F
:1048900000F040F901900198FFF7E0FF0090009BC5
:1048A000184603B05DF804FB00B583B000F08AF948
:1048B0000190019B184603B05DF804FB00B583B07E
:1048C0000190019B1B68184600F00EF9019B5B6884
:1048D000184600F06DF8019B9B68184600F090F9AF
:1048E00000BF03B05DF804FB08B500F011F800BF8D
:1048F00008BD08B500F020F800BF08BD82B00190E7
:10490000024A019B136000BF02B070471C8BFF1F5F
:1049100082B000230193074B1B685B680193019BE6
:1049200023F002030193034B1B68019A5A6000BFF6
:1049300002B07047208BFF1F82B000230193074B0A
:104940001B685B680193019B43F002030193034BD7
:104950001B68019A5A6000BF02B07047208BFF1F8E
:1049600082B000230193074B1B685B680193019B96
:1049700043F004030193034B1B68019A5A6000BF84
:1049800002B07047208BFF1F82B000230193074BBA
:104990001B685B680193019B23F004030193034BA5
:1049A0001B68019A5A6000BF02B07047208BFF1F3E
:1049B00084B00190204B1B788DF80F309DF80F309C
:1049C00003F00F038DF80F30019B1A789DF80F301C
:1049D00013438DF80F30184A9DF80F301370164BA3
:1049E0005B788DF80F309DF80F3003F01F038DF8C2
:1049F0000F30019B5A789DF80F3013438DF80F301C
:104A00000D4A9DF80F3053700B4B9B788DF80F308B
:104A10009DF80F3003F038038DF80F30019B9A7822
:104A20009DF80F3013438DF80F30034A9DF80F3077
:104A3000937000BF04B0704700D0074000B583B04A
:104A400001900B468DF80330054B1B689DF8032041
:104A500011460198984700BF03B05DF804FB00BF02
:104A60001C8BFF1F82B001900B468DF8033000BFF6
:104A700002B0704700B585B0039002910192009397
:104A80000020FCF73CF80246039B1A60029B0022C0
:104A90001A6000210098FCF77EF80246019B1A601C
:104AA00000BF05B05DF804FB00B587B0039002912C
:104AB000019200238DF8173000210398FCF738F895
:104AC0000246029B1B681A44029B1A60029B1B68E9
:104AD000019A9A4202D801238DF817309DF81730B9
:104AE000184607B05DF804FB82B00190019B1A687C
:104AF000074941F607731340CB60019B5A6804498C
:104B000042F6FF731340CB6100BF02B0704700BF95
:104B100000F0074088B00C23079300230393002381
:104B2000059300230493254B9A6942F6EE731340D4
:104B30000393039B002B08D02049039A42F6EE739F
:104B400013408B611E4A039B13601D4B1B6802932D
:104B5000029A42F6EE731340822B02D1052307938B
:104B600027E00023069321E04FF00042069B22FA43
:104B700003F30193019A42F6FE731340002B12D007
:104B8000019A029B1340002B0AD0059B0793049BBC
:104B900001330493049B012B02D90D23079308E0F2
:104BA000059B01330593069B01330693069B1F2B40
:104BB000DAD9079B184608B0704700BF00F00740DD
:104BC000F08CFF1F82B00C4B9A6942F6EE731340D3
:104BD0000193019B002B08D00749019A42F6EE731E
:104BE00013408B61054A019B1360044B1B680093C3
:104BF000009B184602B0704700F00740F08CFF1F82
:104C000082B00190019B1B68034A03F0A0039360EC
:104C100000BF02B0704700BF00E0074084B00190C1
:104C200001230393154B5B69DBB20293019B022BBB
:104C300012D0019B022B18D8019B002B03D0019BA3
:104C4000012B03D011E00023039313E0029B012BFF
:104C50000DD1002303930AE0029B012B02D0029B9B
:104C6000102B06D10023039303E000BF02E000BF36
:104C700000E000BF039B184604B0704700E0074007
:104C800000B58BB001900023099300230893002303
:104C90008DF81F30019B5B680893089B022B76D030
:104CA000089B022B00F2AB80089B002B03D0089BD3
:104CB000012B34D0A3E0584BDB680693069B23F00E
:104CC00060030693544A069BD36002AA03A904A872
:104CD0004CF25033FFF7CEFE029A03A904AB1846FC
:104CE000FFF7E2FE03468DF81F304B4B5B6903F084
:104CF00001030593059B012B06D09DF81F3083F01F
:104D00000103DBB2002BE7D19DF81F30002B79D0D7
:104D100001230993FF210020FFF790FE72E03E4B34
:104D2000DB680693069B23F060030693069B43F023
:104D300060030693384A069BD36002AA03A904A81D
:104D40004CF25033FFF796FE029A03A904AB1846C3
:104D5000FFF7AAFE03468DF81F302F4B5B6903F067
:104D600080030593059B802B06D09DF81F3083F0B0
:104D70000103DBB2002BE7D19DF81F30002B43D09D
:104D800001230993FF210020FFF758FE3CE0224B4E
:104D9000DB680693069B23F060030693069B43F0B3
:104DA000400306931C4A069BD36002AA03A904A8E9
:104DB0004CF25033FFF75EFE029A03A904AB18468B
:104DC000FFF772FE03468DF81F30134B5B6903F04B
:104DD00004030593059B042B06D09DF81F3083F038
:104DE0000103DBB2002BE7D19DF81F30002B0DD063
:104DF00001230993FF210020FFF720FE06E0012395
:104E0000099304E000BF02E000BF00E000BF099B7F
:104E100018460BB05DF804FB00E0074000B585B014
:104E20000190019B0393039800F0C8FB034A039B86
:104E3000136000BF05B05DF804FB00BFF48CFF1FDA
:104E400008B5034B1B68184600F010FC00BF08BDF6
:104E5000F48CFF1F86B0039002910192FF2305930B
:104E6000039B394A934251D1029B102B67D801A270
:104E700052F823F0B94E0000C74E00003F4F00002B
:104E80003F4F00003F4F00003F4F00003F4F0000EA
:104E90003F4F00003F4F00003F4F00003F4F0000DA
:104EA0003F4F00003F4F0000D54E0000E34E000092
:104EB000F14E0000FF4E000001230593059A019B6F
:104EC000134305933CE002230593059A019B13438A
:104ED000059335E004230593059A019B134305933D
:104EE0002EE008230593059A019B1343059327E0C1
:104EF0000E230593059A019B1340059320E00D2393
:104F00000593059A019B1340059319E0039B0F4AF3
:104F1000934215D1029B002B03D0029B012B07D09B
:104F20000EE00B230593059A019B1340059307E0C0
:104F300007230593059A019B1340059300E000BFEA
:104F4000059B184606B0704700A0044000B004401E
:104F500000B589B0039002910192019B0793019BD8
:104F6000082B21D1134B5B6803F00F030693069ABD
:104F700002990398FFF76EFF0590059BFF2B11D058
:104F800003F054FF0B4B5B680A4A23F00F03536096
:104F9000084B5A68059B03F00F03064913434B6007
:104FA00003F070FF00230793079B184609B05DF8D4
:104FB00004FB00BF0080044000B587B001900023CF
:104FC00005930023049300230393019BDB68022BCA
:104FD0000AD0059B43F002030593019BDB6803F0B5
:104FE0000103059A13430593019B9B699B0103F001
:104FF0004003059A13430593019B1B6ADB039BB295
:10500000059A13430593019B1B7F002B01D01023AE
:1050100000E00023059A13430593019B1B69049349
:10502000019B1868019B9B68049A1946FFF790FF43
:105030000390039B0493049B1B0203F4E063059A13
:105040001343059303F058FD019B1B68D3F8C03050
:105050000293019B9B68012202FA03F3DB43029A4D
:1050600013400293019B93F82430002B01D00122BE
:1050700000E00022019B9B6802FA03F3029A1343AB
:105080000293019B1B68029AC3F8C02003F060FDE5
:10509000049B012B6DD1019B5B69022B38D1019BD5
:1050A00093F82530012B0FD103F078FD019B5B684D
:1050B0005968019B9B6801229A40019B5B680A43E7
:1050C0005A6003F097FD13E0019B93F82530002B05
:1050D0000ED103F0B5FD019B5B689968019B9B684D
:1050E00001229A40019B5B680A439A6003F0D4FD59
:1050F00003F0F8FD019B5B685969019B9B680122E5
:105100009A40019B5B680A435A6103F017FE30E046
:1051100003F0E8FD019B5B685969019B9B680122D4
:1051200002FA03F3DA43019B5B680A405A6103F019
:1051300005FE03F029FE019B5B689969019B9B6852
:10514000012202FA03F3DA43019B5B680A409A6189
:10515000019B5B69032B0AD1019B5B689969019BE9
:105160009B6801229A40019B5B680A439A6103F0A5
:1051700037FE019B1B68019A9268059943F822103B
:1051800000BF07B05DF804FB00B585B00190009149
:10519000002303930DE0039A13469B001344DB00A6
:1051A0001A46009B13441846FFF706FF039B013382
:1051B0000393039A019B9A42EDD30023184605B04E
:1051C0005DF804FB00B587B0039002910192019A4B
:1051D00002990398FFF7BCFE059003F079FE039B4C
:1051E000029A53F822300493049B23F4E06304935F
:1051F000059B1B0203F4E063049A13430493039B8F
:10520000029A049943F8221003F08EFE00BF07B003
:105210005DF804FB00B583B00190009103F0AAFE95
:10522000019BD3F8C0200121009B01FA03F31A432C
:10523000019BC3F8C02003F0C9FE00BF03B05DF8B6
:1052400004FB00B583B00190009103F0E5FE019BE3
:10525000D3F8C0200121009B01FA03F3DB431A407D
:10526000019BC3F8C02003F003FF00BF03B05DF84B
:1052700004FB82B001900091009B5B7803F0010277
:10528000019BC3F8C420009B9B7803F01F02019B85
:10529000C3F8C82000BF02B0704786B003900193E6
:1052A0000B46ADF80A301346ADF808300023ADF8D0
:1052B0001630BDF8163043F00103ADF81630BDF8D6
:1052C000163043F00203ADF81630BDF8163043F047
:1052D0001003ADF81630BDF8163043F04003ADF8BA
:1052E0001630BDF8163043F4E063ADF81630BDF863
:1052F00016306FEA43436FEA5343ADF81630BDF8FA
:105300001620BDF808301340ADF81630019B002B75
:1053100003D0019B012B0AD013E0BDF80A301A0418
:10532000BDF816301A43039BC3F8802009E0BDF88E
:105330000A301A04BDF816301A43039BC3F88420C0
:1053400000BF00BF06B0704700B587B00190019B59
:105350005B88ADF81430019B9B681B7A8DF8133085
:10536000019B9B681B680393019B9B685B6802938E
:105370000023ADF8163011E1029B022B69D19DF894
:105380001330012B1AD1019B5A68BDF816305B000F
:1053900013441B8803F01F02019B5968BDF81630A7
:1053A0005B000B441B885B099BB21946814B53F889
:1053B0002130012101FA02F25A601DE09DF81330FC
:1053C000002B19D1019B5A68BDF816305B001344BD
:1053D0001B8803F01F02019B5968BDF816305B0063
:1053E0000B441B885B099BB21946724B53F8213062
:1053F000012101FA02F29A6003F060FE019B5A68F3
:10540000BDF816305B0013441B885B099BB21A463B
:10541000684B53F822305969019B5A68BDF8163021
:105420005B0013441B8803F01F0301229A40019B79
:105430005868BDF816305B0003441B885B099BB2BB
:1054400018465C4B53F820300A435A6103F062FE61
:1054500086E003F033FE019B5A68BDF816305B000E
:1054600013441B885B099BB21A46524B53F82230F7
:105470005969019B5A68BDF816305B0013441B88BC
:1054800003F01F03012202FA03F3DA43019B586879
:10549000BDF816305B0003441B885B099BB21846BD
:1054A000444B53F820300A405A6103F033FE03F0B6
:1054B00057FE019B5A68BDF816305B0013441B88E9
:1054C0005B099BB21A463B4B53F822309969019B0A
:1054D0005A68BDF816305B0013441B8803F01F03A5
:1054E000012202FA03F3DA43019B5868BDF8163033
:1054F0005B0003441B885B099BB218462D4B53F895
:1055000020300A409A61029B032B27D1019B5A68E5
:10551000BDF816305B0013441B885B099BB21A462A
:10552000244B53F822309969019B5A68BDF8163014
:105530005B0013441B8803F01F0301229A40019B68
:105540005868BDF816305B0003441B885B099BB2AA
:105550001846184B53F820300A439A6103F02CFE8A
:10556000019B5A68BDF816305B0013441B885B0929
:105570009BB21A46104B53F82230019A5168BDF87D
:10558000162052000A44128802F01F02039943F8C1
:105590002210BDF816300133ADF81630BDF81620D4
:1055A000BDF814309A42FFF4E7AE00BF00BF07B069
:1055B0005DF804FBF0BA0000DCBA000000B585B06D
:1055C0000190019B1B7C8DF80D300023ADF80E304F
:1055D00035E0019B5A69BDF80E30DB0013441B789F
:1055E0008DF80C309DF80C301F4A52F82300019BB7
:1055F0005A69BDF80E30DB0013441946FFF739FE37
:1056000003F048FF9DF80C30174A52F82330D3F8C6
:10561000C010019B5A69BDF80E30DB0013445A6874
:105620009DF80C30104850F823300A43C3F8C020CE
:1056300003F05CFFBDF80E300133ADF80E309DF87D
:105640000D309BB2BDF80E209A42C2D3019B1B6A5B
:1056500019460120FFF798FD0198FFF775FE00BF7E
:1056600005B05DF804FB00BFDCBA000000B585B0F2
:105670000190019B1B88ADF80C300023ADF80E3073
:10568000D2E0019BD968BDF80E2013469B0013445D
:105690009B000B445B7C83F00103DBB2002B00F02A
:1056A000BE80019BD968BDF80E2013469B001344B1
:1056B0009B000B441B7C002B00F0B180019BD96840
:1056C000BDF80E2013469B0013449B000B441B881F
:1056D000ADF80A30019BD968BDF80E2013469B0037
:1056E00013449B000B44DB68022B1DD104F01AF815
:1056F000BDF80A305B099BB21A46514B53F8223071
:105700005969BDF80A3003F01F0301229A40BDF821
:105710000A305B099BB21846494B53F820300A43C4
:105720005A6104F02BF87AE0019BD968BDF80E208D
:1057300013469B0013449B000B44DB68012B0BD0EA
:10574000019BD968BDF80E2013469B0013449B00B3
:105750000B44DB68032B62D103F0E4FFBDF80A3091
:105760005B099BB21A46364B53F822305969BDF893
:105770000A3003F01F03012202FA03F3DA43BDF8F3
:105780000A305B099BB218462D4B53F820300A4073
:105790005A6103F0F3FF04F017F8BDF80A305B0913
:1057A0009BB21A46264B53F822309969BDF80A304D
:1057B00003F01F03012202FA03F3DA43BDF80A30B3
:1057C0005B099BB218461E4B53F820300A409A6181
:1057D000019BD968BDF80E2013469B0013449B0023
:1057E0000B44DB68032B18D1BDF80A305B099BB270
:1057F0001A46134B53F822309969BDF80A3003F06A
:105800001F0301229A40BDF80A305B099BB218467B
:105810000B4B53F820300A439A6104F001F8BDF8AD
:105820000E300133ADF80E30BDF80E20BDF80C304F
:105830009A42FFF426AF00BF00BF05B05DF804FB3D
:10584000F0BA000082B001900091019B1B6823F028
:105850000702009B03F007031A43019B1A6000BF75
:1058600002B0704782B001900091019B1B6823F049
:105870001802009BDB0003F018031A43019B1A6017
:1058800000BF02B0704782B001900B468DF8033024
:10589000019B1B6823F020039DF80320002A01D000
:1058A000202200E000221A43019B1A6000BF02B0D0
:1058B000704782B00190019B1B6803F02003002B0E
:1058C00014BF01230023DBB2184602B0704782B038
:1058D00001900B468DF80330019B1B6823F4807305
:1058E0009DF80320002A02D04FF4807200E00022CD
:1058F0001A43019B1A6000BF02B0704782B001904A
:10590000019B1B6823F40072019B1A6000BF02B068
:10591000704782B001900B468DF803309DF803303C
:10592000103301229A40019B1B681A43019B1A60A5
:1059300000BF02B0704782B001900B46ADF8023054
:10594000019B5B681B0C1B04BDF802201A43019BE2
:105950005A6000BF02B0704782B001900B46ADF8AC
:105960000230019B9B681B0C1B04BDF802201A43EC
:10597000019B9A6000BF02B0704784B001900B4653
:105980008DF803309DF80330019A0133DB00134496
:105990005B689B08DBB203F001038DF80F309DF8C4
:1059A0000330019A0133DB0013445B68DB08DBB290
:1059B0005B00DBB203F00203DAB29DF80F30134351
:1059C0008DF80F309DF80F30184604B0704786B040
:1059D00003900B4601928DF80B30019B9B0003F066
:1059E00004030593019B9B0003F0080304939DF8B7
:1059F0000B30039A0133DB0013445B6823F004018E
:105A00009DF80B30059A0A4303990133DB000B44E0
:105A10005A609DF80B30039A0133DB0013445B6836
:105A200023F008019DF80B30049A0A4303990133CF
:105A3000DB000B445A6000BF06B0704786B003908D
:105A40000B4601928DF80B30019B9B0003F0100375
:105A50000593019B9B0003F0200304939DF80B30FA
:105A6000039A0133DB0013445B6823F010019DF8B7
:105A70000B30059A0A4303990133DB000B445A604B
:105A80009DF80B30039A0133DB0013445B6823F06D
:105A900020019DF80B30049A0A4303990133DB007F
:105AA0000B445A6000BF06B0704784B001900B46AB
:105AB0008DF803309DF80330019A0133DB00134465
:105AC0005B681B09DBB203F001038DF80F309DF812
:105AD0000330019A0133DB0013445B685B09DBB2DE
:105AE0005B00DBB203F00203DAB29DF80F30134320
:105AF0008DF80F309DF80F30184604B0704782B013
:105B000001900B468DF8033013468DF802309DF856
:105B10000330019A0133DB0013445B6823F0400239
:105B20009DF80230002B01D0402100E000219DF8BB
:105B300003300A4301990133DB000B445A6000BF74
:105B400002B0704782B001900B468DF803309DF88B
:105B50000330019A0133DB0013445A689DF8033087
:105B600022F0800201990133DB000B445A6000BF30
:105B700002B0704782B001900B468DF803309DF85B
:105B80000330019A0133DB0013445B6803F4806344
:105B9000002B14BF01230023DBB2184602B070476C
:105BA00082B001900B468DF803301346ADF80030FB
:105BB0009DF80330BDF8002001990133DB000B4450
:105BC0009A6000BF02B0704782B001900B46ADF8FA
:105BD0000230019BDB6C1B0C1B04BDF802201A4336
:105BE000019BDA6400BF02B0704782B001900B469F
:105BF0008DF80330019B5B6D23F001039DF80320BA
:105C0000002A01D0012200E000221A43019B5A65BC
:105C100000BF02B0704782B001900B468DF8033090
:105C2000019B5B6D23F008039DF80320002A01D03F
:105C3000082200E000221A43019B5A6500BF02B00F
:105C4000704782B001900B468DF80330019B9B6D2D
:105C500023F001039DF80320002A01D0012200E077
:105C600000221A43019B9A6500BF02B0704782B0C0
:105C700001900B468DF80330019B9B6D23F00203CE
:105C80009DF80320002A01D0022200E000221A43DE
:105C9000019B9A6500BF02B0704782B001900B462D
:105CA0008DF80330019B9B6D23F008039DF80320C2
:105CB000002A01D0082200E000221A43019B9A65C5
:105CC00000BF02B0704782B001900B468DF80330E0
:105CD00013468DF802309DF80230002B0AD0019B4C
:105CE0009A6D9DF80330102101FA03F31A43019BCA
:105CF0009A650AE0019B9A6D9DF80330102101FA24
:105D000003F3DB431A40019B9A6500BF02B0704762
:105D100082B001900B468DF80330019B9B6D23F000
:105D200080039DF80320002A01D0802200E0002299
:105D30001A43019B9A6500BF02B0704784B003907C
:105D40000B4601928DF80B30019B012B0AD1039B6E
:105D5000DA6D9DF80B30012101FA03F31A43039B1E
:105D6000DA650AE0039BDA6D9DF80B30012101FA38
:105D700003F3DB431A40039BDA6500BF04B07047AE
:105D800082B001900B468DF8033013468DF8023037
:105D90009DF80230002B0AD0019B1A6E9DF803304B
:105DA000012101FA03F31A43019B1A660AE0019BE1
:105DB0001A6E9DF80330012101FA03F3DB431A4008
:105DC000019B1A6600BF02B0704782B0019000913B
:105DD000019B1A6E009BDB431A40009B1A43019BF8
:105DE0001A6600BF02B0704782B001900091019B1B
:105DF0001A6E009BDB431A40019B1A6600BF02B07B
:105E0000704782B001900B468DF8033013468DF831
:105E100002309DF80230002B0BD0019B5A6E9DF88A
:105E20000330DB00012101FA03F31A43019B5A6698
:105E30000BE0019B5A6E9DF80330DB00012101FA53
:105E400003F3DB431A40019B5A6600BF02B0704760
:105E500082B001900B468DF80330019B5A6E9DF87D
